:020000040000FA
:1000000000400020A1630100DD630100DF63010007
:1000100000000000000000000000000000000000E0
:10002000000000000000000000000000E16301008B
:100030000000000000000000E3630100E563010030
:10004000E76301005973000055670100E763010091
:10005000E763010000000000759E0100E7630100F6
:10006000B5E30000E76301007DA00100E763010044
:10007000E7630100E7630100E7630100E763010054
:10008000E7630100C1690100E7630100E763010064
:10009000E7630100899D0100659D0100FDE400000A
:1000A0000DE50000E7630100000000000000000013
:1000B0000000000000000000000000000000000040
:1000C00008B5054B054803331B1A062B03D9044B0F
:1000D000002B00D0984708BD08010020080100202F
:1000E000000000000648074908B5091A8910CB0F1F
:1000F0005918491003D0044B002B00D0984708BD75
:1001000008010020080100200000000010B5074C85
:100110002378002B09D1FFF7D3FF054B002B02D02A
:10012000044800E000BF0123237010BD0801002037
:1001300000000000F8D7030008B5094B002B03D0DE
:100140000848094900E000BF08480368002B02D1B5
:10015000FFF7C8FF08BD064B002BF9D09847F7E71B
:1001600000000000F8D703000C0100200801002067
:1001700000000000144B002B00D1124B9D46402282
:1001800092029A1A924600218B460F461148124A53
:10019000121A2CF032FE0D4B002B00D098470C4B5E
:1001A000002B00D098470020002104000D000B48D0
:1001B0002CF0FCFC22F074FC200029002AF0FDFA4F
:1001C00022F0BAF900000800004000200000000002
:1001D0000000000008010020FC0900205128020056
:1001E00008B50368186B00280ED0CB0702D503684A
:1001F000002B09D08B0702D54368002B04D04B0796
:1002000008D58368002B05D10349044829F06CFF09
:1002100015F0E9FE08BDC0465C490300E831030063
:10022000F0B5012189B00190FFF7DAFF8021061CAB
:10023000490004A824F0BDFC80240023069D64002E
:10024000009303AB0198291C221C3768B847431C54
:100250000ED103990B2904D1009B1848002B21D102
:100260002AE0012349001943154829F036FF14E01C
:10027000002817D0009B1B180093A04202D2241A1A
:100280002D18DEE7802104A8490024F0E1FC051EBA
:1002900005D10B480B4914F03FF815F0A4FE80245B
:1002A0006400CEE7009B08480593337BDB0700D44E
:1002B000064804A90FF0FEF809B0F0BDB0390300FC
:1002C000E83103007B49030098E102008424030025
:1002D000F0B589B00091041C08680121FFF780FF88
:1002E000071C012C04D1009B1868FFF799FF98E0C8
:1002F000009B586810F07CFD051C431CF3D00124C2
:100300003B7B23426DD0041C291C04A824F051FC23
:1003100000230193002C62D0211C04A824F0B1FC1E
:10032000011E04D14049414813F0F6FF1FE0009B35
:100330003E681868221C03ABB047031C061C01333F
:1003400017D1211C04A824F009FD03990B2908D119
:10035000059B0093002B42D104A824F054FC3448A0
:100360005FE0012349001943324829F0B6FE15F039
:100370003AFEA04202D30699059C14E0211A04A873
:1003800024F0ECFC002EF6D129E0101C1E3398431B
:100390001D3BC0280ED1019A9B18A3421BD8013DDA
:1003A000A34216D20193019BCA5C012350B20028DC
:1003B000F1DAEAE7101C0D3398430C3BE028EAD051
:1003C00004339A43131CF03B5A425A4105239B1AAB
:1003D000E1E72C1C9DE7013B5B191C1B9AE71648C3
:1003E0001CE0291C04A824F0FBFB009B2A1C1868B5
:1003F000069903AB3D68A847431C09D104A824F023
:1004000002FC03990A480B290BD049002143ABE7B2
:100410003B7B05900848234200D1084804A90FF00F
:1004200049F809B0F0BDC04689490300B83003005F
:10043000B0390300E831030098E10200842403008E
:100440007FB50C1C061C08680121FFF7C9FE0222BB
:10045000051C01A9606810F08BFE029A022E07D9D4
:10046000A06810F0C5FC029B021E9A4200D91A1C1B
:100470006B462D6820680199A847431C0BD1009951
:1004800007480B290AD0012349001943054829F0E0
:1004900024FE15F0A8FD01234000184304B070BDF0
:1004A000B0390300E8310300F0B589B00191041CB4
:1004B00008680121FFF794FE061C04A8012C08D946
:1004C000019B5B685C10631C03D0211C24F071FB52
:1004D00013E00124102124F06CFB64420DE0019B29
:1004E000391C1868012203AB3568A847431C11D09A
:1004F000002823D03B780A2B2AD0631C23D104A8E0
:10050000012124F0BEFB071EE9D11649164813F05D
:1005100003FF11E003990B2908D1059B0193012BDF
:100520000CD104A824F06FFB104819E00123490006
:1005300019430F4829F0D1FD15F055FD04A80121FC
:1005400024F00CFC04E0631E002C01D01C1CD6E738
:10055000337B0848DB0700D4074804A90EF0AAFF44
:1005600009B0F0BD89490300B8300300B039030079
:10057000E831030098E1020084240300F7B50F1C62
:100580000221041C161CFFF72BFE01AB4568391C29
:10059000201C321CA847431C0BD1019907480B298A
:1005A0000AD0012349001943054829F096FD15F0AA
:1005B0001AFD012340001843FEBDC046B0390300B8
:1005C000E831030038B5051C0C200C1C27F0BAFEDE
:1005D000024B45600360846038BDC046FCDB02000E
:1005E00030B5072402784160A243053C22430270E3
:1005F0007F22039C05882240D400034A83602A405E
:100600002243028030BDC04607FCFFFF10B507241F
:1006100003782140A34319437F2301700499048880
:100620000B40D900084B426023400B430380039BDF
:1006300004685B05D90A054B23400B430360029B0A
:100640008360059BC36010BD07FCFFFFFF03E0FF55
:10065000F8B50D1C061C141C0DF04EFE2B1C0327B8
:1006600033433B420BD1BC4209D9A208301C291CA0
:1006700019F0FAFA231CBB43F618ED183C40002C85
:1006800004D0301C291C221C2CF012FA8023044AAE
:10069000DB00D358002BF9D00DF01EFEF8BDC0468C
:1006A00000E00140F7B5061C194D0C1C281C22F077
:1006B0008DFF311C174822F0B7FE174822F086FF45
:1006C000164822F083FFFF239B00E61821787F293C
:1006D00016D0B44214D0627850290BD8104B114870
:1006E0005F5C114B5B5C0092A27801923A1C22F095
:1006F0009BFE03E0A3780D4822F096FE0434E5E764
:10070000281C22F063FF0A4822F060FFF7BDC046B4
:1007100097490300C4490300CC490300A24A0300DF
:100720000DBF0300ED4903005EBF0300104A030044
:10073000C04A0300F0B51D1C89B006901B48161C6A
:10074000079122F043FF291C194822F06DFE194839
:1007500022F03CFF184822F039FF0024AC4220DA96
:10076000079BA0001818C778069BBC463F073F0FA1
:10077000195D82780378009707889B06FF047F0E37
:10078000019767463F090297006812090003400E6F
:100790000390305D9B0E0490084822F045FE013422
:1007A000DCE7024822F012FF09B0F0BD97490300D0
:1007B000314A03005E4A0300904A0300C24A030024
:1007C0000379044AD35C002B00D183790248DB0013
:1007D000C0187047F207002038DC020010B5041C76
:1007E000FFF7EEFF031C227903491B68034813F04F
:1007F00093FD15F0F8FBC046E44A030038300300CF
:1008000010B5041CFFF7DCFF034B42689A4202D18B
:10081000201CFFF7E3FF10BDDD070000002803D018
:1008200001210379014AD1547047C046F2070020E4
:1008300008B5FFF7C5FF43680248181A431E9841E0
:10084000C0B208BDDD07000038B50C1C051CFFF761
:10085000B7FFA04208D04368281C9847034A2B7969
:10086000A41A034AE410D45438BDC04638DC020050
:10087000F2070020F8B5214D2E687368012B3BD993
:10088000B1685C1E0A5D0A2A36D1002C03DD621EA7
:10089000885C0A2801D1221C05E0141CF5E7885C5D
:1008A000202802D101329A42F9D3002C0BDD501CD2
:1008B000984208D1601E002805D001380F5C0A2F2D
:1008C0001AD0202FF7D0CB18023B1B78141B3A3BD1
:1008D00059425941A4086418013C0DD3084F301CFB
:1008E000391C042224F044F9381C042103F0CCFA0A
:1008F0002B6904332B61EFE7F8BDC04624010020CB
:10090000287C030008B50348002120222CF075FA4A
:1009100008BDC046EC08002008B5084B42681860C6
:100920000020986018750138D860081C5A601A6158
:10093000996125F093FAFFF79DFF08BD240100207F
:10094000F8B50378002B1ED00F4D041CA86C0028AE
:1009500004D0211C2CF04CFB002814D0201C2CF0BF
:1009600051FB471C381C27F0FAFC061E0BD03A1C22
:10097000211C2CF025FA054B054A1968043B9960A7
:100980009342FAD1AE64F8BDA40800200409002007
:10099000E8080020F0B5BD4B051C18689E68426849
:1009A00085B001921C1C002E00D0C5E06B1E042BEC
:1009B0001BD824F046F96368984200D163E1012D09
:1009C00000D106E1022D0AD00FE09A60412D37D008
:1009D000422D2ED0432D19D0442D00D0E8E02369BC
:1009E0006268934200D91CE158E1032D00D14AE12D
:1009F000042D06D1206821694368994200D3E0E0C4
:100A0000FCE0052D00D1EFE0062D06D123685D68DE
:100A10002369AB42AD416D4228E10B2D07D1019B0B
:100A200022692068991A24F099F9002504E10E2D15
:100A300004D1E368002B00DBA1E02FE1102D04D1ED
:100A4000E368062B00DC8DE028E1152D0BD123692E
:100A5000626820689A1A616824F08EF923696268D6
:100A600000259E1A1DE10D2D0AD1894825F0F6F9C1
:100A7000206824F018F96368C018FFF761FF14E1DB
:100A80001B2D02D10123A36008E1082D01D07F2D89
:100A90001BD121696268914200D8FFE0131C2068D5
:100AA0009D1A8B4205D08568ED5C202D06D101335F
:100AB000F6E70126032D02DD033600E00126891B3F
:100AC000321C24F059F90127ADE0092D28D1236803
:100AD00061689868236940186E4A591A03AB13F08D
:100AE0007FF8061E00D1D9E00025431C0BD1A06978
:100AF00025F0B4F923686168986823694018591A89
:100B000003F0C2F998E023692068E918039B0135D6
:100B10005A1C03921A7824F00FF9B542F3D18BE0F6
:100B20002B1C203B5E2B00D9B8E02A1C20682169D1
:100B300024F00BF901257FE00022012E07D14F2D73
:100B400003D05B2D6BD1023269E0042267E0022EF4
:100B500033D1291C3039092900D936E703221D7504
:100B60009A609BE05A1C4C4913339B00595800294A
:100B700000D193E020686368E26043600FE0206882
:100B8000013BE36062684368991A24F0E7F8E36880
:100B9000002B06DB1233404A9B002068995824F052
:100BA0009EF863682269D61A22685568ED1A78E0C3
:100BB000482D0ED0462D71D116E0032E29D17E2D61
:100BC00002D000252F1C1EE01B7D312B01D0372BBE
:100BD00005D10025236962682F1C9E1A14E01A1C97
:100BE000FB21343A0A4206D1002723683E1C5D6887
:100BF0002369ED1A08E0332BE3D1FBE6012224F050
:100C0000BBF8002501272E1C0023A3609E420BDCAD
:100C100010E0042E03D1462DE6D0482DD9D09A609D
:100C20003CE0002701260025301C03F051F9236920
:100C30009E1B2661002F19D02368019A5B6893429E
:100C400004D2131C2269981A03F052F9226823690E
:100C50009168C8185168C91A03F016F923685868D2
:100C60002369C01A401B03F033F908E0002D15DD9D
:100C70002368291C98682369C01803F005F92369C3
:100C8000ED1825610AE02E1C0FE0C046240100206B
:100C9000C949030054100300A4080020012676422D
:100CA00003E00127002EBFDCC6E7301C05B0F0BD15
:100CB000F0B51B4C1B4D231C28780833DA6F831CBE
:100CC0009B00995AD618538859438912A027F37864
:100CD000FF05002B08D00123B6780130B340A126D0
:100CE000F600BB51C3B20DE0261C0F495068883690
:100CF0007850271C30680837191C002802D0021CC5
:100D0000F8673360981C8000875A1618508878431B
:100D10008012401A01D1181CD8E72B70F0BDC046D4
:100D2000A4080020120800200C050000044B05490F
:100D30001A1C0832D167002288331A607047C046F7
:100D4000A408002098DC020008B50220024978229D
:100D50000DF086FB08BDC046B10C0000421E114BD1
:100D6000FF3A70B59A421AD8051172B60E4B0020A0
:100D70001A1C191C883214680831106062B61E1CD7
:100D8000844200D1CC6F2178201C23F029FC6368B9
:100D900045804360331C88331860002001E0012047
:100DA000404270BD40410F00A4080020054B1A1CB2
:100DB00088331B680832002B00D1D36F588800019C
:100DC0007047C046A4080020F0B54E4A85B0071C05
:100DD0000B1E934200D9131C8022D200D21A01921A
:100DE00072B6494A0020111C88321468083110601C
:100DF00062B6844200D1CC6F0126BE406268009684
:100E0000324207D13A1CA0210320C132FF329200A6
:100E1000C9055050002521788D425CDAAA00A2183D
:100E2000927ABA4202D1002B02D015E00135F3E7E5
:100E30000139201C23F0D4FB6368009A061C9343FD
:100E4000436023785A1E954211DA01339B00023524
:100E50001B59AD002B500AE0201C23F0C1FB636836
:100E6000061C43606B4602359B88AD002B5263889D
:100E7000341D7380012300933378009A9A4226DA56
:100E8000251C23890193A37A0293E37A0393009BA1
:100E90005F1EAB88019A934208D9281C291D08308F
:100EA00004222BF08DFF043D013FF2D26B46033745
:100EB0009B88BF00F7193B806B461B7A0434BB70DC
:100EC0006B461B7BFB70009B01330093D4E70E4BFA
:100ED00088331E6014E0002B12D00131201C23F057
:100EE0007FFB6268009B061C13436A4643602378BD
:100EF00092889B00C3181A8101229F72DA72B6E7AA
:100F000005B0F0BDFF030000A408002010B50021CB
:100F1000041CFFF759FF0E4B0833DA6F00231078DB
:100F2000834213DA99005118897AA1420CD1023315
:100F30009B00D3181F229A700123A340A0221C1CDF
:100F4000044BD205D45001E00133E9E710BDC0469F
:100F5000A40800200C05000010B5041C081C23F098
:100F600073FB031C002C04D0012C07D1400020434C
:100F700005E00348002B02DC024800E0002010BD21
:100F8000A42F0300E82F030070B54568C668846885
:100F9000102027F0D7F9034B4560C66003608460DA
:100FA00070BDC046E0DC020038B50D1C041C6A6848
:100FB0000749AB6827F014FBEA68201C012A03D11B
:100FC000044927F041FA02E0034927F009FB38BD44
:100FD000F64A03006DBE0300034B030030B5041C4A
:100FE00087B00020042A30D1201C0D1C23F02CFBDC
:100FF000011CAB071DD1164B2A689A4219D1291C36
:1010000003AA11F0E3F9102027F09CF9114B039A81
:101010000360E36861685A4352184260049A111CE5
:101020005943019262688A188260059A5343C360EB
:101030000BE0002320682A1C0FF0B2FFE36858433E
:101040006368C01801234000184307B030BDC04694
:10105000640C0300A4DC020008B50B1C02495A68AA
:1010600027F0BEFA08BDC046094B030070B5151C39
:1010700012680C1C8368002A09D1CC000621181DB7
:10108000214302F0C1F900281ED043681BE01A7901
:10109000181C92070BD50D4A934215D10C4E736C58
:1010A000002B03D1012027F0BBFF7064706C062178
:1010B0006A68E4002143002A02D127F0F4FF01E02E
:1010C00027F0E7FF00232B6070BDC04680F60200CA
:1010D000A4080020F8B50625C3001D43071C291CE1
:1010E0000C48012202F090F9061C4068002810D13B
:1010F0000C3027F027F9084B041C036047600120DF
:1011000027F08EFF6E21A0602A1C27F0C2FF201C52
:101110007460F8BDC80800201CDD020008B5024854
:10112000032110F011FF08BDC408002010B50C1CED
:101130000621C00001430122024802F065F9446023
:1011400010BDC046C808002073B50625C3001D4366
:10115000061C291C0F48002202F056F9041E17D164
:10116000221C0D48291C02F04FF9041E11D06068A2
:1011700008216A4607F070FC009B002B08D0002075
:101180006A46011C26F001F8301C6168FFF7CEFFAB
:10119000606876BDC808002058DD0200F0B5002464
:1011A0000E1C85B0071C0393081C0D4B111C0094EA
:1011B000221C0AF037FCB01C800027F0C3F8051C85
:1011C00007604660B44208D0039BA700D85907F0D7
:1011D000BFFCEF19B8600134F4E7281C05B0F0BD7E
:1011E000FFFF0000F7B5002805D13A493A4A3B48CD
:1011F00027F0F6F96BE00D68281C0FF00FFD43682F
:10120000061CEF2B04D16D68281C0FF007FD061C8F
:1012100000233349DA005058854203D18A182F48F9
:1012200051680AE00133612BF3D12C4C2D4B201C6B
:101230009D4201D09E4203D12B4927F005F946E09B
:101240002A4927F0CDF9281C00210FF01BFD201C96
:101250002749726827F0C4F9264B9E4203D1281C07
:1012600023F043FA0CE0244B9E4200D0351CA86BBF
:1012700000282CD083072AD1204B02689A4226D11D
:1012800027F01AFF0025061EAE4220D073689D424B
:101290001DD2B268EB00D3181F68002F15D05B6811
:1012A0001749201C019327F09BF9381C00210FF0EF
:1012B000E9FC1449201C27F093F9019800210FF054
:1012C000E1FC201C104927F08BF90135DEE70F48BF
:1012D000FEBDC04692D00300174B0300541003001C
:1012E00084DE020044E602008E4F0300AA4F030092
:1012F000B24F03001CDD0200043803004425030044
:101300002A7C0300C24F0300CA490300B03903001E
:1013100010B5041C102027F015F8044B84600360FE
:10132000034B43600023C36010BDC046DCE40200F1
:101330003547020013B5041C081C01A90EF02EF954
:10134000002C07D0012C0BD1019928F01BFD400087
:10135000204306E0019B0348002B02D1024800E035
:10136000002016BDA42F0300E82F0300F0B585B0C0
:10137000041C081C03A9151C0EF010F9061C002DF6
:1013800006D1201C3549039A331C27F029F963E064
:10139000011C0022039BC3180093009B99420ED2AC
:1013A0000B78272B04D0223B58424341DBB201E0AB
:1013B000002301220131002BEFD0272703E027274C
:1013C000002A00D0053F264D201C291C3A1C27F07E
:1013D00007F90195009B9E4239D2301C28F0A1FCF0
:1013E000051C301C28F0B8FC061CBD4203D1201C93
:1013F0001C493A1C28E05C2D02D1201C1A4914E03B
:101400002B1C203B5E2B02D8201C01991BE00A2DCF
:1014100002D1201C154908E00D2D02D1201C1449D1
:1014200003E0092D04D1201C124927F00DF8D1E763
:10143000FF2D02D8201C104905E0104B201C10493C
:101440009D4200D90F492A1C27F0CAF8C2E7201C88
:1014500001993A1C27F0C4F805B0F0BD6A71030089
:10146000707103006F7103007371030076710300E4
:10147000797103007C7103007F710300FFFF00009E
:10148000867103008D710300F7B51F1C08AB0C1C9F
:10149000161C1D78FB0702D57F1001970EE0381C43
:1014A00001A90FF0E3FC002808D1381C27F0E4FC68
:1014B0001B49021C1B4812F02FFF0DE0019BA019D5
:1014C000002B17DA0138A04208D20193002D25D154
:1014D0001548164912F020FF14F085FD3F210278CF
:1014E00001388A43803A511E8A419B18002BEAD169
:1014F000013014E0002B11D0844203D30193002D5E
:101500000DD1E5E73F2122788A43802A01D10134B9
:10151000F8E7002B02D00134013BEDE7201CFEBDB3
:10152000947103002835030094310300BC7103005B
:10153000F0B587B0061C0D1C171C0FF06FFB02A93D
:10154000041C301C0EF02AF8061C042F4FD1AB07E8
:1015500035D1284B2A689A4231D105AB281C03A902
:1015600004AA26F01AFF059B234FBB4204D0032B8D
:1015700002D0224808F09AF8039B351CBB4207D0E2
:101580000122201C0092311C029AFFF77DFF051CEE
:10159000049BBB4208D00122201C0092311C029AFD
:1015A000FFF772FF021C01E0029BF2180E20AA4214
:1015B0001ED3521B201C291C27F012FB18E000230D
:1015C000311C0093029A2B1C201CFFF75DFF027850
:1015D000012153B2002B06DA402301211A4202D026
:1015E00001315B08FAE701220DF09AFF00E00020CC
:1015F00007B0F0BD640C0300B0390300D6710300DE
:10160000FF2310B50324DB05CB18A343021C181CD1
:10161000A24213D0042A09D00021002A0ED118F0CA
:1016200049FF0749002809D0064907E08022022027
:1016300012069B18A343044A03439918081C10BDC3
:10164000A42F0300E82F030000008080FF23DB05A8
:1016500010B5041CC818032386B0984304330093C4
:10166000002302A90193102267330BF017FE02A991
:10167000201C26F0E9FE02A82E212BF0ABFC00284E
:101680000FD102A865212BF0A5FC002809D102A8E2
:101690006E212BF09FFC002803D1201C024926F06C
:1016A000D3FE06B010BDC04650C4030030B51D1CAB
:1016B000002385B00C1C0093081C111C1A1C01335C
:1016C0000AF0B0F9002C21D02868124B0340062BF9
:1016D00006D0032318420DD10F4A0168914209D167
:1016E00003A90EF0D5FB0023039900931A1C12F0F6
:1016F0004FFC0CE00340022B09D00FF0DDFB03236D
:101700009843013B1843054BC01800E0044805B05E
:1017100030BDC046070080FF98E1020000008080D5
:101720000200808070B5051C86B0101C01910FF07E
:10173000C3FB041C0390681F182800D9B0E018F000
:10174000CFFC0D10161B2C37686DAFAFAFAFAF0DD0
:1017500010161B2C3768898E93989D000198211CC8
:1017600054E00198211C19F011FC01908FE00198C0
:10177000211C19F0D9FAF8E7201C002118F09AFE74
:10178000002805D04849494828F0AEFC14F02BFC4D
:1017900001A803A922F0E8FF79E0201C002118F03D
:1017A00089FE0028EED10198211C19F0CBF8DCE766
:1017B000201C002118F07EFE0028E3D1211C019896
:1017C0001CF0E6FD0021051C019018F073FE0028B6
:1017D00007D0039A0023002A01DA80231B06019315
:1017E00055E00021281C18F06BFE431E984101248F
:1017F000039E404204400021301C18F061FE431E4D
:101800009841E4B2844242D0281C311C18F01EFFDB
:10181000ABE70198211C1CF09BFEA6E7201C0021D1
:1018200018F048FE0028ADD101A803A922F09CFFC2
:1018300003220220019B1E49934303435B18049338
:10184000039B934303435B1804A905930CF070FFBB
:10185000031C26E00198211C18F032FE12E00198CA
:10186000211C18F041FE0DE00198211C18F022FE09
:1018700008E00198211C18F02DFE03E00198211CBE
:1018800018F03CFE0B4B00280BD10B4B09E0032357
:10189000019A02209A43131C054A03439B1800E057
:1018A0000023181C06B070BD0772030094340300B7
:1018B00000008080A42F0300E82F030008B5043047
:1018C00003F0BCFD004808BDB039030008B5043082
:1018D00024F002FC004808BDB03903000B1CF0B531
:1018E000061CC18887B0151C00681A1C00230FF065
:1018F00057FB041C002D40D0042D14D10320444379
:10190000B1680C190121627852000A4303922278CF
:101910008A400A430492A3788B400B4303A90593A2
:101920000CF006FF2AE0281C032103AA0FF024FB79
:10193000039B18680FF05CFA039B071C58680FF0B4
:1019400057FA039B051C98680FF052FAFF2F03D833
:10195000FF2D01D8FF2805D909490A4828F0C4FB02
:1019600014F041FBC0B204360090A1B2FAB2EBB25F
:10197000301C24F0C6FB044800E0281C07B0F0BD72
:101980001872030038300300B039030073B51C1C13
:10199000081C0023111C02220093131C0AF042F8B9
:1019A000206827F099FB051C60680FF021FA041EDF
:1019B00005DC0949094828F097FB14F014FB0C20BA
:1019C00026F0C0FC061C064BE9B208C0A2B203F028
:1019D0000BFD301C76BDC046277203003830030073
:1019E0001CE30200002805D0012809D18B685B00A8
:1019F000184306E08B680348002B02D1024800E040
:101A000000207047A42F0300E82F03000021F0B549
:101A10008568EA0F5219521091420DDA074BC668D9
:101A2000EB185B1A8C009B003419F6582768266067
:101A3000C4680131E750EFE70148F0BDFFFFFF3F09
:101A4000B039030038B50D1C83684168041C8B4213
:101A500012D3C900C06826F08BFC63680A495A009B
:101A6000A3686260D21A013352189B00E0609200B2
:101A7000C01800212BF0C1F9A368E268591C9B0033
:101A8000A16002489D5038BDFFFFFF3FB039030001
:101A9000F8B5071C161C4C10836803D5E418E24304
:101AA000D21714409C4200D91C1C0C4D381C291C18
:101AB000FFF7C8FFAC46BB6809495A1E5B189B007C
:101AC0001D1FF968A24204DD4859013AC8502B1C79
:101AD000F6E7A4000E516046F8BDC046B0390300D9
:101AE000FFFFFF3F38B50025041C85601021C0684A
:101AF00026F03EFC0423291CE060636010222BF0DA
:101B00007CF9014838BDC046B03903007FB50C1CD4
:101B1000114B02AD0431009301380223019509F005
:101B2000B3FF23680D4C9968012911D9D868029A2E
:101B30000B4B2D79C918131B5E1EB34189005B4204
:101B40001A404118074B002D00D1074B22F096FE9A
:101B5000201C04B070BDC04654E40200B03903003C
:101B6000FFFFFF3FE82F0300A42F030070B50C68B0
:101B7000021CA368002B05D11A491B4828F0B4FAAF
:101B800014F031FA2068012A01D04A6801E00122EC
:101B90005242191C00230FF003FAE268A368810087
:101BA0005618013B043151181A1A35689200A36087
:101BB000301C2BF00EF90021A368E0689A00115048
:101BC000616804290BD95B00994208D9490889004A
:101BD000E06826F0CDFB6368E0605B086360281C6A
:101BE00070BDC046407203009431030007B50090F9
:101BF00001910220694622F0A3FE6946019002206D
:101C0000FFF7B4FF00480EBDB039030070B50E1CDD
:101C10000D49051C002426F017FCB3689C420ED227
:101C2000002C03D0281C094926F00EFCF268A30002
:101C30009958281C01220FF00BF80134EDE7281CFD
:101C4000034926F001FC70BD2377030054720300A2
:101C5000EBD6030070B50326041C0D1C0E4028D1E2
:101C6000174B0A689A4224D18B6882689918436896
:101C7000994210D904318900C06826F079FBAB681D
:101C8000A268E0609B181A1D9B006260C018311C9E
:101C900010222BF0B2F8A368E9689800E3681818DE
:101CA000AB689A002BF08CF8AB68A268D318A360DD
:101CB00003E0201C291C22F04CFE024870BDC046E7
:101CC00080E30200B039030010B5041C102026F098
:101CD00039FB044B84600360034B43600023C36003
:101CE00010BDC046DCE402005F48020038B50B4B73
:101CF000051C03600C1C081E042800D20420686028
:101D0000AC60800026F01EFB6A68E860121BA4002D
:101D10009200001900212BF070F838BD80E302001A
:101D20007FB50D1C161C12282AD004D8052807D010
:101D300007282BD058E0031C193B042B41D953E052
:101D40000322002332409A424FD1131C3168284AA3
:101D500091424AD1B368AA68981822F013FE041C75
:101D6000AB68E9689A00C0682BF02AF8A868E368B5
:101D700080001818B368F1689A002BF021F81EE073
:101D8000081C111CFFF766FF2B1C2EE0101C03A97A
:101D90000FF06CF80023984227D0039A9A4200DA99
:101DA0000393039BA868584322F0ECFDC368041C0E
:101DB0000093E8680421AA68039B27F0BFF9231C5D
:101DC00013E00C4BB20710D1094A316891420CD193
:101DD000B368E9680093AA68F36810F031FB064B1A
:101DE000002802D1034B00E00023181C04B070BD92
:101DF00080E30200E82F0300A42F0300F0B50B1CC2
:101E000087B0041C171C0326002A16D10E400DD1E2
:101E1000524A0968914209D1191C03AA806810F03E
:101E2000D5FA0398049AE368851A78E003A902209A
:101E300003940493FFF79AFE8DE0042A2DD13142DA
:101E400021D1464A096891421DD18068191C03AA14
:101E500010F0BCFA002805D1A068E16803AA27F0B9
:101E600080F979E0039B0498C01A22F08BFD051CD1
:101E70008368E1689A00039BC0689B00C9182AF038
:101E80009FFF281C68E01A1C20680023A1680FF03F
:101E900087F8E3688000C0585EE00E4056D12F4AB4
:101EA0000968914252D1191C03AA806810F08EFA79
:101EB000BA680398049B85180193ED1A002D22DD62
:101EC000A368E9186368994207D98900E06826F099
:101ED0004FFAA368E060EB186360039AE368A81800
:101EE0009100800059181818A3689A1A92002AF0D5
:101EF00070FF039BF9689800E3681818BB689A00A4
:101F00002AF05EFF1EE0E368800018189200F9686E
:101F10002AF056FFB8680399E368049A40189100C4
:101F2000800059181818A3689A1A92002AF051FFD5
:101F3000A3686A42E818E368800092001818311C10
:101F40002AF05BFFA3685D19A56004E0201C191C42
:101F50003A1C22F059FD024807B0F0BD640C0300A2
:101F6000B0390300F7B51F1C13780E1C0A3BD9B219
:101F7000051C1F480F2904D850781B02184326F06F
:101F80001DFC1524037801931A4B01331522121BF3
:101F900000921978019A91421CD1427859788A426C
:101FA00018D182789978914214D100290FD1009BE1
:101FB0009A00104BD45CBC4217D93B1C0E480F4909
:101FC000321C12F0A9F9AB68002418600DE0C1784A
:101FD0000029ECD0013C0433002CD7D10648084935
:101FE000321C12F099F9AB681860201CFEBDC04687
:101FF00003A4030052740300A0350300BD72030064
:10200000D6720300F0B5177885B0051C0E1C992F09
:1020100047D1101C01A924F008FA019B021E9A4224
:102020003FD00378191C0A390F2908D80F23281C20
:10203000311CFFF797FF01238340181C39E0AE2BBA
:102040002FD124F0EDF9041C24F0E5F90290037877
:10205000B22B26D1221CA33B311C281CFFF782FF88
:10206000012403A98440029824F0DFF9039B029025
:10207000984203D002A8391C24F0E6F9029A039B87
:102080009A420CD0311C0F23281CFFF76BFF012351
:10209000834002981C4324F0BEF90290EEE7201C16
:1020A00007E005480549321C12F036F9AB681860A4
:1020B000002005B0F0BDC046A0350300EE7203005D
:1020C000F0B585B0041C0D1C101C03A91E1C24F0C7
:1020D00088F9071E08D10E480E492A1C12F01CF977
:1020E000A36818603B1C0FE003980EF0ADFE021CC5
:1020F000031CB24308D00096054807492A1C12F079
:102100000BF9A36818600023181C05B0F0BDC04689
:10211000A0350300097303002173030038B5137859
:102120000D1C0A3BD9B2041C0F2908D92A1C1248DD
:10213000124912F0F1F8A368002518601AE05278ED
:102140001B021343C2680020904208D02569810019
:102150004959994201D1051C0CE00130F4E722886D
:102160000025042A06D11A1C0348054912F0D4F8A8
:10217000A3681860281C38BDA03503004D73030008
:1021800062730300F0B587B0041C0F1C081C04A97F
:102190001E1C019226F017FB019B051C002B13D17E
:1021A000322F03D1BF2160690902EAE1482F08D02C
:1021B000019BBE48BE492A1C12F0AEF8A368186005
:1021C000E1E16069BB49DCE1019B012B00D08BE0C0
:1021D000412F09D1291C201C3268FFF79FFF011CE9
:1021E000606924F047FF0AE0422F12D1291C201C0D
:1021F0003268FFF793FF011C606924F092FF00280A
:1022000000D0C0E1A948AC49A46827F06DFF206068
:10221000B9E1432F09D1291C201C32680F23FFF795
:10222000A1FE8E21C000C901A9E10378622B33D140
:10223000049B032B07D0052B2ED1C3785F2B2BD10A
:1022400003796E2B28D101279C4A6978531C7F4261
:102250002B321878884206D1A8788446587884456D
:1022600001D1581E077803339342F2D17B1C9FD0D3
:102270003268201C291CFFF751FF049B021C00261A
:102280006069052B03D12B79773B5E425E41331C9D
:10229000391C24F00BFFB2E7462F02D16069884950
:1022A0006FE1472F02D1606986496AE1442F0BD163
:1022B000291C201C3268FFF7A5FEFF231B02B42156
:1022C000184200D074E70DE0452F00D070E7201CC5
:1022D000291C3268FFF796FEFF231B02184200D02C
:1022E00066E7BC2109024AE1019B022B00D0D4E041
:1022F00073681B780A3B0F2B49D8332F12D1291C46
:102300003268201C0F23FFF72DFE291C071C726862
:10231000201C0F23FFF726FE391C021C606924F0E5
:1023200094FE30E100230293342F1BD18027FF015C
:10233000291C3268201C0723FFF714FE291C01907A
:102340007268201C0723FFF70DFE391C031C019A3D
:10235000606924F073FE16E1029B013302930F2B98
:1023600000D125E7029B281C9F00574B791C591868
:1023700003222AF04EFE0028EED1EB78002BEBD1A1
:10238000514BFF5C80233F01DB011F43D0E7332F1C
:1023900001D1802702E0352F13D1A027291C3268F4
:1023A0000723201CFFF7DEFD291C0190FF23201CC2
:1023B0007268FFF785FE019BBF010743190239438D
:1023C000DEE0362F01D1C027E8E7372F01D1E02723
:1023D000E4E700233D4A990050184088874258D1CD
:1023E0008B5A201C029332680723291CFFF7BAFD81
:1023F000766803903378982B28D1301C24F050F85D
:10240000002823D1301C24F00BF803789A2B1DD11F
:1024100005A924F00AF80599071C23F0F0FF02280B
:1024200014D1381C23F0F7FF3A1C0723061C291C83
:10243000201CFFF797FD029B071CDB040ED5201C18
:10244000291C321C1F23FFF73BFE17E017482049C9
:102450002A1C11F061FFA3681860A9E6029B201CEA
:10246000DB0B291C321C002B04D03E23FFF728FE77
:10247000400803E07C23FFF723FE80080399029BBA
:10248000FF0019430F43F8218001C9000840391C9F
:1024900075E00133062B9DD18AE6019B032B00D00A
:1024A00086E6382F16D1002718E0C046A035030075
:1024B0007973030030BF0000D973030093720300E7
:1024C00072B6000062B60000577203006444030055
:1024D000AE730300392F1DD180273F01291C3268BC
:1024E0000723201CFFF73EFD291C0190726807237B
:1024F000201CFFF737FD291C02901F23201CB26807
:10250000FFF7DEFD0199029B394380010143DB00A7
:10251000194335E03A2F02D180277F01DEE7362FBD
:1025200001D1C02703E0372F00D041E6D027291C76
:1025300032680723201CFFF715FD726801900723FE
:10254000201C291CFFF70EFDB2687F011378029052
:102550000A3B0F2B05D8201C291C0723FFF702FD7F
:1025600007E08023DB001F43201C291C0723FFF703
:10257000A7FD029B8001D900019B19433943014308
:10258000606924F024FD07B0F0BDC046F7B5061C15
:102590000D1C00240192019B9D4228D0631C0093D6
:1025A000052B03D1B4681348134907E028780A388B
:1025B000C3B20F2B07D9B4680E48104927F094FD19
:1025C0002060002014E06B780002184326F0F6F833
:1025D0000235071C2AF016FD0228ECD13B78722B3D
:1025E000E9D17B783034A342E5D1009CD3E7201CAD
:1025F000FEBDC046A0350300ED7303002074030048
:102600000F22114008B5031C081E03280ED817F02E
:1026100067FD0204090D181C0BE00648002B08D1C9
:10262000054806E0181C26F027F902E0181C26F0E1
:102630003EF908BDA42F0300E82F0300F0B583691D
:1026400099B05A1E04925A1D9200821804320791C2
:1026500002920F21012206339B00C3180433039317
:102660000369019006A81A4009180A7003229343CF
:102670000A930CA813F09CFC031E01D000F08CFD03
:10268000019A5568D468079A002A26D02A785E2ACB
:1026900023D00798079300F0BEFCAB786A781B0242
:1026A0001343B84AEB189B186360EB780834236037
:1026B00023685A0600D1B1E20A9A013B5268920798
:1026C00000D49FE2221C08C205236360141C0A9BED
:1026D0001F680A9B0C3B0A933D1C019B6F1C5D60AD
:1026E0002B78181C10385A2801D900F005FD17F076
:1026F00001FD5B005D0062000305640003057300DB
:1027000081008700030589009E00AF00BE00CD0058
:10271000DB00EA00EF00F70005011901290138018B
:1027200055015E0171018901960103050305030549
:102730000305A301A5011A05AC01B201BC01C40146
:10274000D101DE01E901030503050305F9012602B4
:102750009C029C02B902CF02D302E602E602D4FF39
:102760000305030503050305030503050305030529
:102770000305F20204031503260334033D03520349
:1027800063037B039703A90354048004A7049504FF
:102790000305C003CC03D703E003F0030B042004BC
:1027A0003C04DE04EE04FE04774B00E0774B6360EC
:1027B000043400F0E5FC764BF9E76B785B06DB1739
:1027C0007F213A78DB01114052B20B430137002AD6
:1027D000F6DB5B0001220BE000237F213A78DB016E
:1027E000114052B2CB180137002AF6DB0622DB007B
:1027F0001343DCE70323FD1C9D432F1C08CFD6E7C2
:102800000023D4E700237F213A78DB01114052B244
:10281000CB180137002AF6DB9B005B42029A9858DE
:10282000002800D049E25B485B4900F05CFD0023D2
:102830007F213A78DB01114052B2CB180137002AD0
:10284000F6DB029A9B005B42985823F0D5FBE7E742
:1028500000207F223B78C0011A405BB2101801377C
:10286000002BF6DB251D05F0B3FF00F03EFC002039
:102870007F223B78C0011A405BB210180137002B51
:10288000F6DB251D05F072FF00F02FFC00217F22F2
:102890003B78C9011A405BB251180137002BF6DBB7
:1028A000206824F080FC26E200217F223B78C901C9
:1028B0001A405BB251180137002BF6DB2068221C4E
:1028C00006F0FAF874E7251D05F09AFF00F00DFCFC
:1028D000251F2868216804220EF016FC00F036FC43
:1028E00000237F213A78DB01114052B2CB18013727
:1028F000002AF6DB9B005B4200F012FC00237F21E4
:102900003A78DB01114052B2CB180137002AF6DBCE
:10291000029A9B005B4298582168251F23F06EFBAA
:1029200000F015FC00207F223B78C0011A405BB20A
:1029300010180137002BF6DB2168251F05F074FF06
:1029400000F005FC00207F223B78C0011A405BB2FA
:1029500010180137002BF6DB2168251F05F07CFFDE
:10296000F5E300217F223B78C9011A405BB2511880
:102970000137002BF6DB231F20681A6806F0C4F825
:1029800007E2C0460380FFFFE82F0300B0390300D1
:10299000A42F030024320300A6740300231C221F6B
:1029A000083B106821681A680EF0AEFB3BE100237B
:1029B0007F213A78DB01114052B2CB180137002A4F
:1029C000F6DB029A9B00D31A1A68002A00D12AE784
:1029D00000223EE000257F223B78ED011A405BB2E9
:1029E00055190137002BF6DB029BAD005D1B2868F3
:1029F00023F002FB002800D115E72868002123F00E
:102A0000FDFABDE300207F223B78C0011A405BB293
:102A100010180137002BF6DB05F012FFB0E30020A1
:102A20007F223B78C0011A405BB210180137002B9F
:102A3000F6DB05F01DFFA3E32368B8E62368A36077
:102A4000231F1B68636008349AE3231F19682268F8
:102A500021601A6094E3221F136821682360231CFD
:102A6000083B1868106019608AE3AB786A781B022B
:102A70001343ED18D94BEF1882E3AB7820686E78DA
:102A800005930EF0F5FAEF1C251F2C1C002800D131
:102A900076E321E0AB7820686E7805930EF0E8FAD3
:102AA000EF1C251F2C1C002800D069E314E0AB7834
:102AB00020686E780593EF1C0EF0DAFA002800D13A
:102AC00031E309E0AB7820686E780593EF1C0EF0D7
:102AD000CFFA002800D026E3059B1B021E43C04B03
:102AE000F618E8E0261C27681721381C221C083637
:102AF00005F0E2FF381C1621321C05F0DDFF002036
:102B0000321C011C24F041FBAB786A781B02134392
:102B10000A9A0F210C320A920A9AEF1CFB181360D2
:102B2000022206ABC9180A9D0B781343221D1343DA
:102B30006B6000230A9A0B709360A0600DE0261C66
:102B40002568A84B083E9D4209D16560A560032019
:102B50000021321C24F019FB3560341C10E30121E4
:102B600029402CD06D10231F012D10D1251C1A686F
:102B70000C3D05929B4A03201A600021226062608E
:102B80002A1C24F002FB059B2B60032315E0251C67
:102B90003268103D05921A6803200692914A00217E
:102BA00032601A6022602A1C24F0EFFA059B069A14
:102BB0002B60231C0C3B1A6005233360E9E033686B
:102BC0003560251C103D23602A1C032024F0DDFA0B
:102BD0000EF04EFA00280DD00122824B06A92B6080
:102BE0000A9B5B6813400E32521813700A9B0C3B11
:102BF0000A93ACE223682B60231C043C22680C3B44
:102C00001A60AAE70A9A06A8516801220A400F2111
:102C100009180A700A9A0C3A0A924AE5221F1768A4
:102C2000002B00D1B5E00C3CAAE2AB786A781B021D
:102C300013430A9AEF1C0C320A920A9AFB1813608B
:102C40002B780A9A403B584258410F21430006A86E
:102C50000918087803432343536000230A9A0B7032
:102C600093608DE2206811F09FFB251F002803D0A0
:102C700013F0B4F92B6817E223685A4A2C1C9342CC
:102C800000D17DE25B10DBB2012B00D010E592E1B8
:102C9000206805F05DFF2EE0AB786E780593019B10
:102CA000EF1CDC60206805F07BFF002805D1059B48
:102CB000043C1B021E43BF1962E2606078E50A9B78
:102CC00006A95A68012313400F22521813700A9B59
:102CD0000C3B0A9354E200207F223B78C0011A404B
:102CE0005BB210180137002BF6DB8300E41A0434C2
:102CF000211C0BF01DFD206042E200207F223B786A
:102D0000C0011A405BB210180137002BF6DB8300BC
:102D1000E41A0434211C21F058FEECE700237F2143
:102D20003A78DB01114052B2CB180137002AF6DBAA
:102D30009B005B4218592168FEF784FEF3E10020F6
:102D40007F223B78C0011A405BB210180137002B7C
:102D5000F6DB251D26F064F9C7E1251C231F083D7D
:102D6000286821681A6826F094F9F0E100237F2191
:102D70003A78DB01114052B2CB180137002AF6DB5A
:102D800001339B005B42221F18592168126826F00C
:102D900080F9083CF4E100207F223B78C0011A4012
:102DA0005BB210180137002BF6DB8300E41A043401
:102DB000211C03F0C1F99EE700237F213A78DB0153
:102DC000114052B2CB180137002AF6DB9B005B4260
:102DD0001859216823F006FCA5E1C0460380FFFFD7
:102DE0000080FFFFB039030000237F213A78DB0128
:102DF000114052B2CB180137002AF6DB251F022BF7
:102E000005D128682168D34A08F016FF9EE1261CE8
:102E1000083E30682968226808F00EFF30609CE6A2
:102E200000257F223B78ED011A405BB2551901372E
:102E3000002BF6DB291C2068221C06F0FBF9C64B90
:102E4000ED1813E000257F223B78ED011A405BB2BC
:102E500055190137002BF6DB291C221C206806F0CF
:102E600041FAFF232A0A1A401D405519AD00641982
:102E700086E103230021FD1C9D4328680A1C21F0E4
:102E800050FB2F1D261D606067E60323FD1C9D433C
:102E9000261F2868316822682F1D21F042FBBDE7FC
:102EA0000323FD1C9D4329796F1D8B00E41A043414
:102EB0000AE00323FD1C9D4329796F1DCB439B0032
:102EC000E41880235B0019432868221C21F044FB8E
:102ED00011E700237F203978DB01084049B2C3188D
:102EE00001370029F6DBFF20FF22191CDD09400015
:102EF0001140284040188000241A1B0A1A402068FC
:102F0000231D05F02BFDF6E600217F223B78C90149
:102F10001A405BB251180137002BF6DBFF23CA09B8
:102F20005B001340CAB29B189B00E41A083C0020C7
:102F30002FE000237F203A78DB01104052B2C31803
:102F40000137002AF6DBFF25181CFF22DE09284086
:102F500052003240411C891889001B0A641A2B4018
:102F6000191C221C24F011F9C5E600217F223B78B0
:102F7000C9011A405BB251180137002BF6DBFF2361
:102F80000120CA095B001340CAB29B189B00E41AD7
:102F90000C3C221C06F026F8ADE60F2206ABD21838
:102FA0001378002B07D00A9B596801230B4013703C
:102FB0000A9B0C3B0A930A9B039A934213D30A9BE6
:102FC0005B689B07F4D503220A9B21685B689343E7
:102FD0001C1C59609A600A9B08341F680A9B0C3BB2
:102FE0000A93FFF779FB12F0F9FF019B0020DC60E8
:102FF0007DE16B78022B01D1043C0BE0002B09D161
:103000000A9B039A934200D26BE19868002802D190
:103010000C3BF6E7206806F063FA66E1079E21683C
:10302000231F002E02D00021079E07911868321C32
:103030000BAB06F0E7F9012811D12F1C0B9B236085
:1030400012F0CCFF019B06A95F60DC600F235B18C8
:103050000A9A1B7801201343019A136147E1002863
:1030600006D10B9B043C002B00D13A4B23600CE0B3
:1030700002281BD10B98394927F040F8002810D0BE
:103080000B9811F029F9043C2060002E78D0301CF8
:10309000334927F033F8002872D012F09FFF0D96C5
:1030A0007AE012F09BFF0B9B0D9375E0043C00202F
:1030B0007F223B78C0011A405BB210180137002B09
:1030C000F6DB251F21682A6806F028FA3EE0002179
:1030D0007F223B78C9011A405BB251180137002B9F
:1030E000F6DB251C01CD06F02BFA60602FE020688E
:1030F000251F24F063F82AE0AF2B05D80120803B80
:103100005B000343FFF753FBBF2B04D8B020C31A67
:103110009B00FFF783FBCF2B07D8C020C31A9B006F
:10312000029A21689950043C2AE0D62B05D8D03B5E
:10313000181C216805F0A8FBDDE5FA2B12D8251F25
:10314000D73B181C2968226805F090FD28602C1CCC
:1031500016E0C046B0390300FFFFFF3FE432030032
:10316000DC3503006349644826F0BEFF041C12F0FE
:1031700035FF049B019A06339B00D3185C60AEE0D8
:103180005E4B1A6B002A01D1FFF7A6FA00221C6BD6
:103190001A6312F023FF0D940D9B5949186811F022
:1031A000FFFE002825D0019B5A68002A21D0137801
:1031B000432B0BD19378D11C52781B021343019AF5
:1031C000CB185360D3680593043B7EE05E2B10D18F
:1031D000019B019ADC680D98231DD36011F07CF8E7
:1031E000019B60605B68019A059301335360FFF7B0
:1031F00040FA0D9B434A93423CD0434A934239D014
:10320000019B0BA81B6805930B9323F014FB051C73
:103210000BA823F010FB041C0BA823F00CFB019B54
:10322000011C5B680593019B1B680693069A059B2E
:10323000981A0122401B0B9D2B78002B12D0DE091F
:1032400004D11F361E4001355B0908E00F26E02738
:103250001E40FF001B011F406B7802353B430B955E
:10326000B04204D20D98231C11F0C4F802E0801B78
:10327000D218E0E70F2306AA9B181A78002A08D074
:103280000A9A516801220A401A700A9B0C3B0A9361
:10329000F0E70A9A03998A421AD301221A700A9B0C
:1032A0000D991B680593059A019B05915A600322AD
:1032B0000A9B5B6893430A9A9160144A5A600D9A7C
:1032C0009A6012680C331A60019AD360FFF7D1F943
:1032D000049B019A06339B00D3180D9A5A60022072
:1032E00005E00B480B4926F0FFFE041C51E719B01E
:1032F000F0BDC046D2740300D0340300A4080020FF
:10330000E4320300F430030054360300B039030004
:1033100074300300EC74030038B5051C141C21F054
:1033200048FC024B2560636038BDC046714B02000B
:1033300010B50C1E7F2C06D8012121F0A2FC00281C
:1033400044D0047042E0224B99420FD8022121F070
:1033500098FC00283AD04022A3095242134303703C
:103360003F231C40BF3B1C4344702FE0194B994244
:1033700014D8032121F085FC002827D02022230B1C
:1033800052421343037080213F23A20949421A404D
:103390001C400A430C434270847017E0042121F062
:1033A00070FC002812D01022A30C52421343037069
:1033B00080213F23220B49421A400A434270A2094E
:1033C0001A401C400A430C438270C47010BDC046B2
:1033D000FF070000FFFF000007B5034B00906846A1
:1033E000019309F059F807BD714B020010B5041C98
:1033F0000C2024F0A7FF034B4460036001235B42D1
:10340000836010BD18E50200F0B5067887B0B307F9
:1034100002D5002A00D0F2E0F307DB0FDBB2029303
:10342000002B0ED0774B0B40062B0AD003230B400A
:1034300003D1754C0D68A54202D0012A01D0DEE00F
:10344000029301920D1C041C730749D50368876819
:10345000DE08F600BE19B74211D23868A84204D17E
:10346000019B022B00D0A1E09EE0029B002B04D127
:10347000291C0DF06BFC0028F2D10837EBE7019B0B
:10348000012B00D0BBE02368D9086368994210D1B2
:1034900004316160A068C90024F06AFF2368626893
:1034A000DB08D21ADB00A060D200C018002129F08E
:1034B000A4FC07222068C308591CC90002400A4323
:1034C0002260A268DB004F49D3181D60181C0D4014
:1034D000062D00D194E0012122788A4322708FE0EA
:1034E0004368002B05D1019B012B00D087E000F041
:1034F0008DF8444B2B400493062B04D1E80825F0AB
:1035000053F9039005E00220291C05F0BDF9431092
:1035100003930398616816F087FE002600910591D9
:10352000009BDF00A368DF19386800281AD1019BCF
:10353000311C012B63D12068C3080133DA00072353
:10354000034013432360002E00D1391C00234B603D
:10355000049B0D60081C062B52D001222378934354
:1035600023704DE0042803D1002E21D13E1C1FE022
:10357000A84203D1019B022B18D108E0029B002B2B
:1035800016D1291C0DF0E2FB002811D0F2E72368C8
:103590006168083B23600098013016F045FEA3687F
:1035A000C900CB58002B00D004233B60381C27E017
:1035B00000986168013016F037FE059A009191423B
:1035C000AED1019B012B1AD1002E0ED023680833F7
:1035D000236000237360049B3560062B03D023789F
:1035E000019A93432370301C0AE0201C00F00EF86F
:1035F0000398616816F018FE0091059190E700208D
:1036000007B0F0BD070080FF98E10200F7B54368FE
:10361000041C0193591C0023174A9A588A4205D268
:1036200004335C2BF8D101250D4300E0151CE800A4
:10363000A76824F099FE07232268656013400122E1
:103640003D1C0026236013432370A060019B9E4213
:103650000DD02968002907D0042905D0201C01229B
:10366000FFF7D2FE6B68436001360835EEE7381C81
:1036700024F08FFEF7BDC04654E502000022F8B5E5
:103680000768051C8668781C114BD358834205D205
:1036900004325C2AF8D10123184300E0181C0024EE
:1036A00028606C60800024F05FFEA860BC420BD0F4
:1036B000A300F158002905D0042903D0281C0122B9
:1036C00021F0C9FB0134F1E7301C24F062FEF8BDA3
:1036D00054E5020073B50090000C431E01910A2BC3
:1036E0001BD801231C1C84400C490A88224392B237
:1036F0000A800B4A11780F290FD816781178094CD7
:10370000D94033409B009840031C655C2B43DBB2DF
:10371000635413780133DBB2137073BDE8070020E4
:103720001308002014080020094A38B51378002B2C
:103730000CD1084D2C78E4B2002C07D1006801337D
:1037400013702B7003685B6898472C7038BDC046B7
:103750001D0800201C08002010B5041C0430FFF7D1
:10376000E3FF606828F0A8FC034B8000C0580623E4
:10377000C000184310BDC04604E7020008B50BF0B6
:10378000F1FE0023074A99008A58904208D001337D
:103790000C2BF7D10449054826F0A6FC12F023FCB7
:1037A000D8B208BD04E702000B75030038300300EF
:1037B00038B5041C081CFFF7E1FF051C201DFFF7AE
:1037C000B3FF606828F078FC024BA84200D0024B9F
:1037D000181C38BDA42F0300E82F030038B5041CC3
:1037E000081CFFF7CBFF051C201DFFF79DFF0122E2
:1037F000AA40064B06481988114200D1054819888D
:10380000914300221980044B1A7038BDE80700204C
:10381000A42F0300E82F03001308002038B504305C
:10382000FFF782FF124C13482378002B1FD020781B
:103830000021C0B20AF07CFF00232278934214D208
:103840000D495A088D5C01221A40920015412A1C2C
:103850000F252A40094D9200525906259900D200A1
:1038600041182A438A600133E7E70023237038BDFB
:1038700013080020182103001408002004E70200A8
:10388000C02307B5034800931B210022024B14F00C
:1038900089FB07BDCC030020D5360000F0B50E1C17
:1038A000496885B0041C151C002901D0002A04D1E8
:1038B000201C311C21F08CFD58E00F3213095918DF
:1038C000009321F0F5FC0F22A368B16870682A40CC
:1038D00000D11032009D264F2D18EF197F00DB1903
:1038E0000393234B0190C3185B00CB189C46039BAA
:1038F0000293002301991027002913D061460988FB
:10390000BF1A0B43191CF9400F1C02991B040F80AE
:10391000019901390191029902390291022149422A
:103920008C44E7E7BF1AFB4003994000081A10498E
:1039300003808C46009B01995F00C71B02376344DC
:103940005A00381C29F059FA002D06D06B00023BB2
:10395000FB5A002B01D1013DF6E701216560337868
:103960000B401A1C23788B431343237005B0F0BD22
:10397000FFFFFF7FF0B54B68151C526887B0061C2F
:103980000C1C934201D22C1C0D1C0123227861686F
:103990001A4201D12A7813405918301C21F088FCB2
:1039A000B36829789C46A3680F1C0193636820784C
:1039B0000093AB68474002936B68059301231A1C80
:1039C0001F408B430493009B8243591E6346101C87
:1039D00003934B1C27D0019B1F4A1B889B18181868
:1039E000009A059B9B1A5B188B4207D8029B1A4AC8
:1039F0001B889B18029A0232029200E0164B049A2E
:103A00000139D3181A1C424092B2D719039A1B0CE1
:103A10000493131C02330393019B17800233000CA1
:103A20003F0C0193D5E7009B59006144002F02D061
:103A300001230B800231604621F025FC01217060DA
:103A400022782B7853400B401A1C33788B43134356
:103A5000337007B0F0BDC046FFFF0000F0B55C68F2
:103A600091B0002C02D144604C6049E1051C0B93DD
:103A700053680E1C591C0692019321F019FC069BF9
:103A800000215B68A8685A1C5200019329F0B5F91F
:103A900000236B60069B301C5B68591C019321F06E
:103AA00007FC301C069921F093FCB36877680293F9
:103AB0000B9B9B6803930B9B5B680593AB68089318
:103AC000059B9F420ED310D80298391C039A21F00F
:103AD00035FC002804D10123089A7060138002E0AD
:103AE000002802DA00236B60FFE00021059B854A75
:103AF0009A18039B52009B1804931B88019119B2DA
:103B0000002905DB01995B0001319BB289B2F5E721
:103B1000931C0C930C9A039B9B1800229C46039BBE
:103B200063450BD2198801980C1C844022431A80EB
:103B30001022121A114102338AB2F1E700227C00EE
:103B4000029BA01C1A531B1801370993029B776034
:103B50000792099A93420FD21988019A081C904043
:103B6000021C079810431022188001980233121A81
:103B700011418AB20792ECE7049B1B880F93029BCA
:103B80001C19059BFF1A5F4B6F60FF18089B7F0095
:103B9000DB1909937368059A0A93934260D9A31EAF
:103BA00020880E931B88000418430F9916F0B6FA6C
:103BB0000C9B0022E31A191C039F07900D93A1424E
:103BC0001AD207983B88434308888446834202D22E
:103BD000C01A90420AD860461B1A9A1853420B80AA
:103BE000130C92B2501E8241D21802E0821A0A804F
:103BF000002202310237E2E723889A4208D3D31A1F
:103C00005A42190C9BB222805A1E93415A180BE05B
:103C10009A1A2280002207E02388C018079B208080
:103C2000013B000C121A0793002A0ED00020039FBC
:103C30000D99A142F0D20B889C463B880237634421
:103C400018180880000C0231F3E76A46099B928B32
:103C5000023B5A8009930A9B0E9C013B736099E7D3
:103C60000023049A03998A420FD3049A0198128878
:103C7000111C01410B4304990B8010231B1A9A401D
:103C800093B2049A023A0492EBE71E4A0A9B9446C6
:103C9000029A63445B00D318002202998B4214D32A
:103CA0001988019C081C204102431A801022121B13
:103CB0009140023B8AB2F0E7124A08999A185200E2
:103CC000525A002A0ED1013B6B606B68002BF3D176
:103CD00008E00C4A02999A185200525A002A04D15C
:103CE000013B73607368002BF3D101210B9B1A78A1
:103CF000069B1B785A400A4202D02B780B432B704C
:103D000011B0F0BDFFFFFF7F436830B55A000023BC
:103D10008468A218944207D2084D023AAB420AD8EE
:103D200015881B042B43F5E70278D20700D55B42C8
:103D30000B60012000E0002030BDC046FF7F000086
:103D4000F8B58D1E00241E2D16D81F1C40680B4B85
:103D50000001595C151C16F0E1F9061CA74204D0BD
:103D60000130032116F0DAF9041C281E01D029F0D5
:103D700049F9033634192418201CF8BD1B750300BB
:103D800010B50F4826F056FD002817D00D4826F034
:103D9000ADFC0D4B1B68984203D10C4B9A6E1A6315
:103DA0000CE03F220A490B8801331340094A12886C
:103DB000934203D00A88084C0B80A05410BDC04623
:103DC000340300207403002040010020A4080020D8
:103DD000EC070020EA0700201E080020002208B59A
:103DE000084B09481A80094B09491A8026F027FD1B
:103DF0000122084B524208481A6026F068F9074B26
:103E0000986608BDEC07002034030020EA07002074
:103E1000813D000040010020F02F0300A408002095
:103E200010B5041C431C03D0034B986E10F0D4FA59
:103E3000024B1C6010BDC046A408002040010020B9
:103E4000034B044A1B881088181A431E9841704778
:103E5000EA070020EC070020084B094A198812885D
:103E6000914201D130BFF7E71A880649885C3F21AB
:103E70001A8801320A401A807047C046EA070020BB
:103E8000EC0700201E08002038B5041C4518AC4281
:103E900005D02178024826F01EFC0134F7E738BD32
:103EA0007403002070B5041C4518AC420DD0237873
:103EB000064E0A2B03D1301C0D2126F00CFC217874
:103EC000301C26F008FC0134EFE770BD74030020BD
:103ED00010B5041C002C08D0211E082900D9082187
:103EE0000248641AFFF7D0FFF4E710BD3C750300E9
:103EF00038B5051C041C002C08D0211E082900D947
:103F000008210448641AFFF7BFFFF4E7281CFFF7F5
:103F1000DFFF38BD4575030008B5011C01220248CA
:103F200022F033F808BDC0460800002070B5002814
:103F300014D00B4D041C281C13F01AFE0419061C87
:103F4000844205D230BF281C13F012FEB042F9D8CB
:103F500030BF281C13F00CFEA042F9D370BDC04640
:103F6000E0020020F0B52B4D87B003902B78002B9A
:103F70001CD05AB2002A10DA80246E1C6D785C4086
:103F8000002D13D0631EDCB2FF2C0DD004AB981DA6
:103F900001210570FFF786FFF4E704AAD01D012177
:103FA00003702E1CFFF77EFF751CDFE705260398C4
:103FB000FFF7BCFF0124B44226DA0025164F291C66
:103FC000381C221C00F05CFC6B4601901B79002B16
:103FD00014D0631E1A1C381C291C029300F050FCDC
:103FE000031E0BD1381C291C221C00F00FFC6B4651
:103FF000381C1B79291C029A00F008FC0135052D9C
:10400000DCD10134E4B2D6E7013E002ECFD107B0B7
:10401000F0BDC0464E7503000800002008B5C8205A
:10402000FFF7A0FF004808BDB039030008B50348FA
:1040300009680CF031FE024808BDC0465410030068
:10404000B039030010B50024064B1C700AF0D8F8F4
:1040500000F07CFA03F004FD09F07CF8024B1C70C0
:1040600010BDC0461D0800206408002008B5064B9E
:104070001A680823D16C0B43D36424F04EFCFFF77D
:10408000FFFB00F0ADF8FCE70407002008B50C4882
:1040900015F0D4F921F0A3FF11F0EEFC0EF024F995
:1040A000FCF744FE074826F0C7FA07480AF036F93D
:1040B0000AF012F9FCF748FE07F068FD08BDC0469B
:1040C000E4030020EC0200204540000010B588B059
:1040D000694601AA041C10F0C5F9009B022B2AD9DD
:1040E00004A8322102AAFFF717F9019B13495A6865
:1040F00002A824F075FA201C0CF090FD104BC26849
:104100009A4210D1236802A85A680E4924F068FA2E
:10411000E368002B07D05A68002A04D002A89968E7
:1041200000220CF095FD04A820F0BDFDFFF7F4FE81
:1041300004A820F068FD08B010BDC046F275030069
:1041400001420100FB75030070B5051C90B000280A
:1041500003D11F481FF03AFA38E004A811F028FFF5
:10416000041E19D12E6801A8291C012201F036FC79
:10417000221C231C311C01A807F0C0FA041C0320D8
:10418000FFF74EFE201C22F0F1FF01204042FFF716
:1041900047FE11F023FF19E001204042FFF740FEE7
:1041A00005990C480CF078FD05980CF037FD0A498C
:1041B000041C10F0F5FE002808D1201C074910F05F
:1041C000EFFE002802D10598FFF780FF10B070BD08
:1041D000FF7503005410030058310300F02F030053
:1041E00037B5294B01AA1A6008F0B0FBE120C000E6
:1041F00008F0C0FB2548264905F0C6FA04F098FAF5
:10420000FFF7ECFDFCF77EFBFFF740FF0023214C9E
:104210006367214B1A781D1C012A1FD1F8239B02CA
:104220001A784D2A07D15A78502A04D159881B4848
:1042300021F02CFE12E0002219480721131C11F076
:1042400027FD002802D021F02CFE07E0A62015490A
:104250000122400005F062F922F0B0FF2B78002B1C
:104260000FD109F049FC0028F8D00F4821F0F6FDE5
:1042700000230E4A903413605360236022F072FFD3
:1042800037BD09F095FCEEE7440100200012002044
:1042900000380020A4080020DC00002004E0030017
:1042A0002C76030018210300347603001009002047
:1042B00007B505F0F9FA054B01A81968091A89082C
:1042C00005F0ACFA05F004FB07BDC0464401002030
:1042D0000023FA21084A89001360084A1370084A2B
:1042E0001360084A1160084A1370084AD3661367BE
:1042F0000122074B1A707047480100205E08002019
:104300004C0100200400002060080020A4080020C8
:104310005F08002008B5084B1A78002A08D1074B1F
:104320001B6B002B02D0FFF7D3FF03E030BFF2E797
:1043300000221A7008BDC0465F080020A4080020B3
:10434000837F0248002B00D101487047A42F03004F
:10435000E82F030010B5A0241049E4054B7F081C8A
:104360005A1C002B05D1498C0D4B8B430D496350D2
:104370000EE010335B00CB185988A123DB00E1501D
:10438000092A05D101200AF09FF80120404203E0EC
:10439000054B42775200D05A10BDC046080000209D
:1043A000F01F00000C0500007C44030008B500234A
:1043B000E021A02283770C4B0902D205D1500B4893
:1043C000FCF72CFA0A48FCF729FA0A48FCF726FA07
:1043D0000948FCF723FA0948FCF720FA0848FCF7DB
:1043E0001DFA084808BDC0460C050000102803004F
:1043F0008C29030074280300842903004829030042
:1044000020280300B039030073B51B4D041EEE6E67
:1044100009D11A4D2B78002B2BD01948194921F0BE
:1044200056FD2C7027E00CF0F9FB174B984202D197
:10443000301C211C15E0154B2340062B05D0A3078B
:1044400012D1134B22689A420ED1201C01A90BF005
:104450001FFD019B012B0CD1007822F04EFD011CA9
:10446000301C21F034FD06E00A480B4925F03CFEE3
:104470002863FFF72DFF73BDA4080020600800200B
:104480000800002008FC020028FC0200070080FF52
:1044900098E102002835030042760300034B1878A8
:1044A000013843425841C0B27047C0465E08002000
:1044B000F7B5A123A021214AC905DB00CA5001227A
:1044C000C37F1F4D0D339A404A51C37F019501337D
:1044D000DBB2032B00D10023C377011C031C363150
:1044E000223300221A8002338B42FAD1C77F15494A
:1044F0007B000133CB18591E0E780521714301262C
:10450000351C1C78063309190F4C6118141DA54081
:104510002C1C09799219490041184D8C2C434C846C
:10452000092AE8D10D37A023A122BE40DB05D20025
:104530009E50828E01995A50F7BDC046F01F000070
:104540000C0500009F7603000800002070B5304C79
:104550008CB0A37F002B59D0201CFFF7A9FF2D4A58
:104560002D4913680968063313608B4241D3002537
:104570002A4B15601B78012B06D0022B39D1201C49
:10458000274921F0A4FC32E0264BDA6E1E1C002ADB
:104590002DD01B6F002B2AD005F022F9684611F0B0
:1045A00007FD002809D1204B186804F0F9FA051C12
:1045B00011F014FD05F01EF915E005F01BF9019B43
:1045C0001A49186810F0ECFC00280CD101980CF086
:1045D00025FB174B984203D11648174924F000F8E1
:1045E0000025019B3363281CFFF70EFF01E0FFF756
:1045F0006FFE0023228C6377FF33FF331A4205D00E
:10460000E12201200D49D20009F02AFF0CB070BD53
:10461000080000204C010020040000205E0800205B
:1046200008FC0200A408002048010020E432030036
:10463000B8300300541003005076030055430000C7
:10464000F7B50024009308AB124D1B78061C081C1C
:10465000171C0193EC662C6704F07AFA6A460E4B3D
:10466000127818600D4BEE661F600D4B28671A70AC
:104670000C4B1C7004F094FAFFF7C6FE01220A4BA3
:104680001C600A4B1A70019BA34201D0FFF742FE47
:10469000F7BDC046A4080020480100200400002007
:1046A000600800205F0800204C0100205E08002008
:1046B000F0B500242C4B8DB0DC661C672B4B07AC8F
:1046C00040C9013800930194052307F0DDF90798EC
:1046D000636805900293237B257A0393244B277C00
:1046E0000340062B05D0830718D1224B02689A425B
:1046F00014D106A90BF0CCFB069B002B30D0012B6C
:1047000008D1002D06D1002F04D1007822F0F5FB4E
:10471000059021E0059803F0A3FE0AE00CF07EFA74
:10472000154B984206D1002D14D0012005A909F09F
:10473000FFFF0590237C002B03D00598FEF756FE63
:104740000590039B301C00930599029A2B1CFFF7E0
:1047500077FF05E0002FE8D1301C059921F0B7FB69
:1047600006480DB0F0BDC046A4080020B8E802001D
:10477000070080FF98E1020028FC0200B039030026
:1047800030B5104B89B003AC20C9013800930194B7
:10479000052307F079F902A903980BF079FB227C35
:1047A000237B02990092039A03F044FE237A011CB2
:1047B0000093281C62680023FFF742FF024809B0FB
:1047C00030BDC04688E90200B0390300002208B5B8
:1047D000064B1A70064B02321A70064B064A1B68CB
:1047E000063B1360FFF796FD08BDC0465F0800203A
:1047F0005E080020040000204C01002008B5FFF7EF
:10480000E5FF014808BDC046B039030010B50429D2
:1048100001D8042A02D90B480B4903E0092B05D91A
:1048200008480A4925F060FC11F0DDFB05246143CE
:104830008A188218137101229A40131C028C1343A8
:10484000038410BD383003007076030085760300C2
:10485000F8B548680C1C0F680CF0CAFA061CA06872
:104860000CF0C6FA051CE0680CF0C2FA311C031CFF
:104870002A1C381CFFF7CAFF0048F8BDB0390300F6
:1048800008B5042901D8042A05D90649064825F0A7
:104890002BFC11F0A8FB052359438A1880180079D6
:1048A00008BDC0467076030038300300F7B51B4FD3
:1048B0000190381CFBF7A4FF194E301CFBF7A0FF3A
:1048C000184D281CFBF79CFF1748FBF799FF17486A
:1048D000FBF796FF1648FBF793FF164C381C211C7C
:1048E000FBF7B2FF301C211CFBF7AEFF281C211C7C
:1048F000FBF7AAFF211C0C48FBF7A6FF211C0B4865
:10490000FBF7A2FF0A48211CFBF79EFF21F067FB83
:104910000123019A08489377FEBDC0461028030082
:104920008C2903007428030084290300482903000C
:104930002028030058DC0200B039030010B5041C25
:10494000082023F0FFFC024B4460036010BDC0460A
:10495000D0E9020073B501A90BF09AFA019B061C7D
:10496000502B02D9184819491BE08020400023F041
:10497000E9FC174C051C231DD8670023019A9342BC
:1049800003D0F15CE9540133F9E75B22281CEA54B7
:104990000AF020FA2B1C002807D10434E0670D49E7
:1049A000094825F0A1FB11F01EFB5A1B0133591ECB
:1049B00009789B29F9D1291C074824F011F9002313
:1049C0000434E36776BDC04638300300D576030073
:1049D000A4080020E476030098E10200F0B58BB053
:1049E000061C10A80778364805AD00900195081CF4
:1049F000111C1A1C052307F047F89120000123F031
:104A0000A1FC304B304AD867059B476043702B7937
:104A100004A903702B7A041C83702B7BC3702B7C3E
:104A2000301C13600BF034FA0025284B071C0C20B7
:104A30001D6023F087FC264B061C036010F02AFF44
:104A4000B06010F027FF234B23491860234B7060A0
:104A50001D70234B301C1D70224B0A1C1D602B1C2B
:104A600010F0ECFD201C391C049A24F034FA201CB0
:104A70000DF000F81C4B071E0393134E194D164CF6
:104A80000AD110F0E9FC0F4B1848DF67184B196882
:104A900025F02AFB11F0A7FA0122164B1A7010F02C
:104AA000F3FE0028FBD1039B0433D8673368002B47
:104AB00003D0114829681EF0B7FC201C0BB0F0BDD4
:104AC000A4EA0200A8080020600100205001002094
:104AD00024EA020058010020B039030062080020D7
:104AE000630800205C010020A40800203830030087
:104AF0006000002061080020FB76030000220D49C1
:104B000010B50B78DBB2934212D10B4A1478002C0B
:104B100002D001240C701370084B1B78002B06D0B8
:104B2000074A136820331360064B1A6800E0826856
:104B3000101C10BD630800206108002062080020DE
:104B40005001002058010020D2235B005843134A33
:104B500030B51368000C834206D9114C2368013329
:104B600023601368203B13601F23051C14689D43BA
:104B7000A54203D901240B4B1C70F5E703401A1D15
:104B8000202A00D92022084C2468934203D2E51839
:104B900029710133F9E7054B186030BD5001002041
:104BA0005C01002062080020580100205401002010
:104BB000002805D0012809D18B685B00184306E066
:104BC0008B680348002B02D1024800E000207047A8
:104BD000A42F0300E82F03007FB5041C0122081C4A
:104BE00001A90CF0C5FA00222179402009F00EFF3E
:104BF000061C0298311C15F091FA6268051C130A14
:104C0000834208D2A368C1187143E06823F0B0FB67
:104C10002379E06003E01B1A1B02D2B21343321C5B
:104C2000A06863607043E3686A431818019928F02C
:104C3000C7F8A36802485D19A56004B070BDC046FE
:104C4000B0390300F7B5FF254668041C0191AE4357
:104C50001DD10179321C402009F0D8FE6368071C81
:104C60001D408023A1681B011D430831414365603D
:104C7000E06823F07DFB6368E0601A0AA368013AEC
:104C800001337A435F43311CC01928F0B6F820790C
:104C9000019BE168A2680AF013F8A3680348013396
:104CA000A3606368013BFF3B6360FEBDB039030056
:104CB00010B5041C102023F057FB024B4460036026
:104CC00010BDC04620EB020070B50A79041C0D1C13
:104CD000002A09D1194923F0B7FB201CE968AA680A
:104CE00001230AF07BFB23E0154923F079FCAB6834
:104CF000002B1DD0201C134923F0A6FB0026AB6817
:104D00009E4211D2002E03D0201C0F4923F09CFBA1
:104D1000321CE968287909F09BFE0122011C201C45
:104D20000BF096FF0136EAE7201C084923F08CFBC4
:104D3000201C074923F088FB70BDC0460A7703009A
:104D4000167703002177030054720300EBD60300AB
:104D50006DBE0300F8B5071C0D1C4020391C002255
:104D600009F054FE061E05D10C490D4825F0BCF98A
:104D700011F039F9102023F0E5FA0A4B041C002F3A
:104D800000D0094B281C2360FBB2A5607043636010
:104D900023F0D8FAE060201CF8BDC0462577030058
:104DA0003830030098EB02005CEB0200F0B5061C03
:104DB0008BB00D1C141C12283AD034D8052800D012
:104DC00087E0081C012204A921F03FF9201C07A953
:104DD00001220CF0CDF9069B002203936B46402084
:104DE000197B09F013FE061C0898311C15F096F982
:104DF000069B071C03936B46A968187B7918FFF77D
:104E0000A9FF059B041C1A1C0499C068039327F092
:104E1000D7FF321CE36805987A431818079927F0E2
:104E2000CFFF231C56E01B2839D01F2806D050E0A6
:104E3000081C111CFFF7D0FE2B1C4BE0101C07A90F
:104E4000012224F02FF80322002814D0234B15420E
:104E500040D1234A296891423CD104A9281C01224F
:104E600021F0F3F80123049800930599079A089B11
:104E700023F097FE28E0E3070ED4144203D1194B28
:104E800022689A4208D00322144B2240022A21D1E0
:104E9000154A1440062C1DD0144804F007FC081CC9
:104EA000012204A921F0D1F8201C07A9012223F036
:104EB000F9FF0A4B00280DD0089B301C0093049981
:104EC000059A079B24F06EF9094B002802D1034B89
:104ED00000E00023181C0BB0F0BDC046E82F030013
:104EE00098EB020040F20200070080FF03A40300D9
:104EF000A42F0300F0B5051C87B00E1C002808D0B5
:104F00008B0724D10B68264A934202D0254A93424C
:104F10001DD1301C03A9012223F0C4FF002816D0A4
:104F20000022291C402009F071FD061C0498311C48
:104F300015F0F4F8071C281C391CFFF70BFF321C76
:104F4000041C7A430399C06827F03AFF24E0301C20
:104F50000CF06AF8071E00D04710391C281CFFF718
:104F6000F9FE041C301C03F0F3FD002600900098AD
:104F700003F03CFE031E0FD0002F04D1201C191C8F
:104F8000FFF760FEF3E7721C0192281C321CE168F7
:104F900009F096FE019EEAE7201C07B0F0BDC0466E
:104FA0008424030098EB020070B586B0002A44D038
:104FB0000324161C051C0A1C0C402CD1204B09682C
:104FC000994228D1111C806803AA0DF0FFF900282E
:104FD00002D11C4804F06AFB221C042E2DD1297931
:104FE000402009F013FD049B061C28790093039BC5
:104FF0000193019A009B991AFFF7ACFE041C0399D8
:10500000049AEB68521A714372435918C06827F02A
:10501000D7FE221C11E0A968286800230BF0C0FF0E
:10502000E968021C2879042E03D109F011FD021C45
:1050300003E0331C09F044FE034A101C06B070BDA7
:10504000640C0300D6710300B039030037B51D1C92
:1050500000230C1C0093081C111C1A1C013306F0C1
:10506000E1FC002C04D1201C211CFFF773FE1BE087
:105070002968CB0705D48B0713D10C4B0A689A42D9
:105080000FD1081C0BF0B4FE051C0020291CFFF7F3
:1050900061FE041C0021C0682A1C27F0AEFE201C03
:1050A00002E00020FFF726FF3EBDC04640F20200AE
:1050B00070B5061C081C1FF0F6FD051C25F093FAC0
:1050C000041E06D108492A1C08480FF025F910F0E3
:1050D0008AFF301C1FF009FB031C0121201C1A1C35
:1050E00004F09AFA70BDC04632770300E033030043
:1050F00010B5041C1FF0D7FD20F0DBFE031C0120BF
:1051000083420CD00649201C1FF0E9FD201C1FF033
:10511000CAFD20F0CEFE023843425841400010BD87
:1051200083770300F0B59DB000AF0C68032807D962
:10513000CB680025FB60042805D00D696D1002E0E6
:105140000025A24BFB601C23201CF9180AF0A0FECE
:105150007861002D56D09E4C6E2160680CF0E0FE08
:10516000061C6068962100220430FEF74DF91823D2
:10517000FA18D118041C301C0AF08AFE3B6B011C83
:10518000013DC018002C0CD188420AD9013803789F
:105190002E2BF9D105E0884203D9013803782E2B54
:1051A000F9D1013DF7D2FE69441A251C002E01D029
:1051B000751C2D192B1C6A460E33DB08DB00D31A35
:1051C0009D46181C221C3B6127F0FAFD002E08D0DA
:1051D0002E233A697969135501341019321C27F0CE
:1051E000EFFD3869291C08F041FB012804D17949F9
:1051F000794824F079FF5FE006243B69C00004434E
:10520000FD617B61201C0AF0ADF9FBF79DFF051ED7
:1052100015D02E21786927F0DDFE011C281C0029FD
:1052200000D1D0E0694BFA689A4200D0CBE07B69AC
:10523000C91A181C08F01AFBFBF786FFC3E01822F6
:105240000823BA18D0181033FA184021D2181FF0CA
:10525000CFFC0126BD603D612C1C04E07B699B5D99
:105260002E2B05D00136FB699E4200D9A5E0F5D171
:10527000311C786908F0FAFA18220823BA18386045
:10528000D0181FF0DEFC18220823BA18002815D108
:10529000D018321C79691FF06BFC18220823BA1849
:1052A000D018FFF725FF78607B68002B13D14A48A0
:1052B0004A493A680FF030F810F095FED0182F21C7
:1052C000FEF736F87B693A691820991808233818D0
:1052D000B21AC018DFE73868FBF736FF041E57D153
:1052E0003868FBF7F7FEFB69041C9E4208D13C4B73
:1052F000FA689A4204D180686E215E2223F0C9FECA
:105300007B68012B3DD118220733BA18D0181FF043
:1053100091FC18220823BA187860D0181FF091FC6D
:105320000022011C78680AF0FBF81221021C201CE4
:1053300003F0EAFB18220823BA18D0182F21FDF732
:10534000F7FF18220823BA18D01826491FF0C7FC07
:1053500018220823BA18D0181FF0A5FC20F0A9FDC8
:10536000022806D118220823BA18201CD118FFF7EA
:105370009FFE18220823BA18D0180C211FF0EEFC4B
:1053800006E018220823BA18201CD118FFF790FE57
:10539000002D0AD03A697B69B11A981808F066FAAC
:1053A000221C011C281C03F0AFFBBB68002B00D1A2
:1053B000BC60731C3B61251C54E7044BFA68201C3D
:1053C0009A4200D1B868BD461DB0F0BDB0390300A7
:1053D000A408002047770300E0330300667703004A
:1053E000E82F03007B770300F8B50327041C381C63
:1053F0000E1C5043151C1DF0D1FB0121331CA022B3
:10540000B140C133FF33D2059B00606026706580D8
:105410009F50094BD1500022AA420CDA03230021ED
:10542000534360680132C1546068C01841706068BD
:10543000C3189970F0E7F8BD0C0500000122F0B523
:105440000378A0219A40131C894AC905051C85B020
:105450008B5032200138C046C046C046C046C046C8
:10546000C046C046C046C046C046C046C046F1D150
:10547000EFF31081019172B60020698802910299C0
:10548000884200DB07E1032141436C686118CC1CB2
:105490000394A024A1260F78E405FF09F600002F4D
:1054A0000BD0A351C046C046C046C046C046C04609
:1054B000C046C046C046A3500AE0A351C046A35010
:1054C000C046C046C046C046C046C046C046C046AC
:1054D0000C78A127A446A0246646E405FF00E3510A
:1054E00076060AD5C046C046C046C046C046C0463D
:1054F000C046C046C046A35009E0C046A350C046BF
:10550000C046C046C046C046C046C046C0460C78ED
:10551000A127A446A0246646E405FF00E351B60691
:105520000AD5C046C046C046C046C046C046C04672
:10553000C046C046A35009E0C046A350C046C0467E
:10554000C046C046C046C046C046C0460C78A127EB
:10555000A446A0246646E405FF00E351F6060AD5FA
:10556000C046C046C046C046C046C046C046C0460B
:10557000C046A35009E0C046A350C046C046C0463E
:10558000C046C046C046C046C0460C78A127A446C7
:10559000A0246646E405FF00E35136070AD5C0465D
:1055A000C046C046C046C046C046C046C046C046CB
:1055B000A35009E0C046A350C046C046C046C046FE
:1055C000C046C046C046C0460C78A127A446A024C9
:1055D0006646E405FF00E35176070AD5C046C0469B
:1055E000C046C046C046C046C046C046C046A3509E
:1055F00009E0C046A350C046C046C046C046C046AB
:10560000C046C046C0460C78A127A446A0246646E2
:10561000E405FF00E351B6070AD5C046C046C046C0
:10562000C046C046C046C046C046C046A35009E07A
:10563000C046A350C046C046C046C046C046C0464D
:10564000C046C0460C78A127A446A0246646E405BF
:10565000FF00E351F6070DD5C046C046C046C04620
:10566000C046C046C046C046C046A3500CE0C04637
:105670000C050000C046A350C046C046C046C04608
:10568000C046C046C046C046039C0131A14200D07E
:10569000FFE60130F3E6019B83F3108805B0F0BD0F
:1056A000BFF34F8F024A034BDA60BFF34F8FFEE721
:1056B0000400FA0500ED00E0024B186801234000E9
:1056C0001843704714070020012208B50E4B1A60DA
:1056D0000E4A0D4B51680029FAD000215160A122D9
:1056E000D200985801225A6017F02EFC084B002275
:1056F00016F0E0FD17F0B8FC03239843013B184374
:10570000044BC01808BDC04600C00040FCC00040AB
:105710000000D03F0000808008B5C30708D483078D
:1057200009D10368094A934202D0094A934202D13F
:105730000BF05EFB03E00BF0BFFB15F0A5FD0028AE
:1057400001DDFEF7F3FB034808BDC04640F202004E
:10575000AC2F0300B0390300F0B5061C0F1C85B058
:105760001D4C1E49201C20F0B2FBFA208000FEF7E1
:10577000DDFB01940024A64203D038680BF038FB0F
:10578000041C201C0A2114F03FFE03AD3031A97027
:10579000201C0A2114F052FD0A21041C14F034FECE
:1057A00030316970201C0A2114F048FD0A2114F0E0
:1057B0002BFE002430312970285D21F09EFB011C56
:1057C000019820F084FBFA2001348000FEF7AEFB44
:1057D000032CF1D1C4E7C046080000203CEC0200D5
:1057E000002313B5046A00930A05A16B024C920CC6
:1057F000125920F0EEFC13BD60ED0200F0B51C78EC
:1058000087B07C2C06D185686D5C002D02D09A2D66
:1058100000D0DEE00393231C6B3B02920091071C37
:10582000022B29D884687D6860180378032B00D088
:10583000ACE004A920F0C0FD6319984200D19EE0BD
:105840000378032B00D0A1E005A920F0B5FD039B50
:105850001B786B2B03D1049B059A13430AE06C2B36
:1058600003D1049B059A534004E06D2BE4D1059BC2
:10587000049A13400493DFE76E2C04D00223221C09
:105880009A43702A63D1009BBE68F0187B6801932D
:105890000378032B7AD104A920F08EFD051C019B0F
:1058A000F3189D426BD0AB78A81C6C78032B6DD19C
:1058B00005A920F081FD051C372C0ED1059A1F2A61
:1058C00064DC4549049B11418B425FDCC021090621
:1058D00011418B425ADB934009E0392C09D1059BD9
:1058E0001F2B01DD1F230593049B059A134104938D
:1058F00028E02F2C03D1049B059A9B18F7E7302C46
:1059000003D1049B059A9B1AF1E7312C09D1049825
:1059100005990DF0B3FB002838D1059B049A534339
:10592000E5E7332C32D00599352C05D100292DD04F
:10593000049824F0ACFA04E0002927D0049824F05D
:10594000B6FA0490049B5A005340A8D51EE0752C6B
:105950001CD18368009A981883784478032B15D15A
:10596000023020F038FD2F2C08D0302C05D14042D9
:1059700043000490584002D508E0C0430490009BC7
:10598000381C7B60049920F054FC22E000267B68E0
:10599000009A029C9D1A0136E409FCD12B1C0134AB
:1059A000DB09FCD1731C1A19381C009901931FF0F4
:1059B000A2F9071C039B311C1B78029A1A3303704F
:1059C000013020F0B2FB019B211CF8182A1C20F0AA
:1059D000ACFB07B0F0BDC046FFFFFF3FF0B597B08E
:1059E0000990C020002540230AAC80000F1C161C23
:1059F00025706360A56022F0B2FC2561E0606561FE
:105A0000A561E5612762E562A84202D1BF48C049AD
:105A1000C0E1331E03D00423022E00D0033B002636
:105A2000BC4A9B000096201CB96B9A58331C20F08E
:105A3000D0FB102022F086FC1021041C1FF0B9F8C6
:105A40000AADAB68002B00D181E12A78002A00D092
:105A50007DE1013B0C32AB605343EA68AD49D3189A
:105A6000DA785D689200525803921A689B681202B5
:105A7000120A0493039B06925B7807930F23079AFD
:105A80001A400592002D01D1636804933023079AD0
:105A90001340102B02D0202B40D0F4E0002D03D077
:105AA000002E01D10026CBE7039B6A009A18059BC4
:105AB0009D4231D25388190B012916D1391C40312E
:105AC00009781B0502321B0D994221D10AA8211C1D
:105AD00020F0E4FB0028E5D13B1C40331B78062B6B
